:020000040800F2
:1000000000500020BD0C0008050D0008050D00087B
:10001000050D0008050D0008050D00080000000092
:10002000000000000000000000000000910B00082C
:10003000050D000800000000F10B0008350C000859
:10004000050D0008050D0008050D0008050D000848
:10005000050D0008050D0008050D0008050D000838
:10006000050D0008050D0008050D0008050D000828
:10007000050D0008050D0008050D0008050D000818
:10008000050D0008050D0008050D0008050D000808
:10009000050D0008050D0008050D0008050D0008F8
:1000A000050D0008050D0008050D0008050D0008E8
:1000B000050D0008050D0008050D0008050D0008D8
:1000C000050D0008050D0008050D0008050D0008C8
:1000D000050D0008050D0008050D0008050D0008B8
:1000E000050D0008050D0008050D000800000000C2
:1000F0000000000000000000000000000000000000
:0C01000000000000000000005FF808F1A3
:1001100010B5054C237833B9044B13B10448AFF341
:1001200000800123237010BD0800002000000000A3
:10013000500D000808B5034B1BB103490348AFF34A
:10014000008008BD000000000C000020500D0008D9
:1001500008B5094C236943F4005323614FF47A70C6
:1001600000F04EFC236943F0005323614FF47A7092
:1001700000F046FCEDE700BF0010014008B5094C57
:10018000236943F0007323614FF47A7000F038FC68
:10019000236943F4007323614FF47A7000F030FC5C
:1001A000EDE700BF001001400B4A936943F01003D4
:1001B00093610A4B5A6822F440025A605A6842F42A
:1001C00080125A605A6822F0C0025A605A6842F09F
:1001D00010025A60704700BF00100240001001403A
:1001E00000B583B0FFF7E0FF0024019401250095DE
:1001F000234620220749084800F04AFA0194009556
:10020000234620220549064800F042FA00F072FA1F
:10021000FEE700BF680D000851010008700D0008DE
:100220007D01000882B0002301930093244A1368E3
:1002300043F480331360224B1B6803F400330093B4
:10024000019B01330193009B1BB9019BB3F5A06F88
:10025000F1D11B4B1B6813F4003F06D00123009320
:10026000009B012B04D002B0704700230093F7E7F6
:10027000134B5A685A605A685A605A685A605A68EA
:1002800022F47C125A605A6842F498125A601A6832
:1002900042F080721A600A4B1B6813F0007FFAD09C
:1002A000074B5A6822F003025A605A6842F0020271
:1002B0005A60034B5B6803F00C03082BF9D1D2E7BB
:1002C0000010024008B5FFF7ADFF08BD08B5114B9F
:1002D0001A6842F001021A6059680F4A0A405A60CF
:1002E0001A6822F0847222F480321A601A6822F4AA
:1002F00080221A605A6822F4FE025A604FF41F02EC
:100300009A600022DA62FFF7DDFF044B4FF00062D3
:100310009A6008BD001002400000FFF800ED00E008
:1003200000F1080343604FF0FF328260C360036155
:1003300000230360704700230361704730B40D68E9
:10034000B5F1FF3F11D000F108031C465B681A6845
:10035000AA42FAD963684B6099608C606160086159
:1003600003680133036030BC70470469F2E7036936
:10037000416882688A60416851605A68824206D04A
:10038000002202611A68013A1A6018687047826890
:100390005A60F5E7074B1B681B6823B9064B4FF003
:1003A000FF321A607047034B1B68DB681A68024B08
:1003B0001A60704728000020D400002010B50446C1
:1003C000006B00F0B1FB204600F0AEFB10BD2DE944
:1003D000F04780469946089EDDF824A00A9C276BCA
:1003E00002F18042013A07EB820727F0070779B351
:1003F0000D4600220F2A07D8A95CA31883F83410F1
:10040000AB5C0BB10132F5E7002384F84330042ED6
:1004100000D90426E662201DFFF78DFF04F11800C5
:10042000FFF789FF2461C6F10506A6616462002317
:10043000636484F848304A464146384600F096FBEB
:100440002060BAF1000F01D0CAF80040BDE8F08783
:10045000002384F83430DAE738B50024042C08D8B7
:1004600004EB840293000E481844FFF759FF01344F
:10047000F4E70C4D2846FFF753FF0B4C2046FFF7DF
:100480004FFF0A48FFF74CFF0948FFF749FF0948AB
:10049000FFF746FF084B1D60084B1C6038BD00BFCE
:1004A00030000020A8000020BC000020E000002058
:1004B0000C010020F8000020280000202C00002063
:1004C00010B5044600F076FB274A13680133136029
:1004D000264B1B685BB1264B1B686BB9234B1B6813
:1004E000DA6AE36A9A4207D8204B1C6004E01F4B8B
:1004F0001C601368012B34D01E4A1368013313604B
:10050000E36A1D4A1268934201D91B4A13601B4AD1
:1005100003EB830302EB83035B68A3609868E060EE
:10052000211D41609960E36A03EB8301880002EBBF
:100530008101616111580131115000F04BFB0C4BEE
:100540001B686BB1094B1B68DA6AE36A9A4207D2EF
:100550000B4B4FF080521A60BFF34F8FBFF36F8F7A
:1005600010BDFFF779FFC7E79400002024000020AA
:10057000F4000020A0000020A40000203000002093
:1005800004ED00E00F4B1B68D3B110B500F012FB77
:100590000D4BDB68DC68201DFFF7E9FE0B4A136892
:1005A000013B1360074A1368013B136000F012FB24
:1005B0002046FFF703FF034B1B68002BE6D110BD5D
:1005C000704700BF980000200C010020940000201C
:1005D00008B5FFF7D7FF064B1B68012BF9D9054B70
:1005E0004FF080521A60BFF34F8FBFF36F8FF0E769
:1005F0003000002004ED00E070B504460D461E4BAF
:100600001E681E4B18680430FFF7B1FEB4F1FF3FBF
:100610000DD03444194B1B685C60A6421DD9184BA1
:100620001868164B19680431FFF788FE70BD002D5D
:10063000EFD0144A5168114B1868816018688C68B3
:10064000C4601868043060601868043088601B68F3
:100650005A61136801331360E8E70B4B1868074BC6
:1006600019680431FFF76AFE084B1B68A342DDD905
:10067000064B1C60DAE700BF2001002024000020A8
:100680002C000020F800002028000020D4000020CA
:100690002DE9F04385B00746884614461E46900073
:1006A00000F00AFAF0B181464C2000F005FA054648
:1006B000A0B1C0F83090D5B10023039302950D9BF3
:1006C00001930C9B00933346224641463846FFF780
:1006D0007EFE2846FFF7F4FE012005E0484600F0C4
:1006E00023FAE8E74FF0FF3005B0BDE8F0834FF0A4
:1006F000FF30F9E700B583B0124B0193002300935C
:10070000202211491148FFF7C3FF012804D0104BE4
:100710001B6803B05DF804FB4FF0BF0383F311883F
:10072000BFF36F8FBFF34F8F0A4B4FF0FF321A604A
:10073000094B01221A60094B00221A6000F0A2FA4C
:10074000E5E700BFD0000020780D0008D1050008C3
:1007500000000020D4000020F40000202001002030
:10076000024A136801331360704700BF9C000020E9
:100770004B4B1B68002B40F08A8070B5494B1D68BD
:1007800001351D60A5B1484B1B68AB421DD9002047
:10079000464B1B68DB6A03EB83039A00444B9B5870
:1007A000012B00D90120434B1B68002B75D170BD74
:1007B000414A1168414B186810601960404A13683B
:1007C00001331360FFF7E6FDDDE7002036E0364B2E
:1007D0004FF0FF321A60DBE7334B1A60D8E7D96875
:1007E000516041E0196A5160002199621168013934
:1007F0001160DA6A334909688A4201D931490A60CD
:100800002B4902EB820294000C4462689A6094685F
:10081000DC6066609660DA6A02EB8206B4000E194C
:100820005E610C59013402EB820296008C51DA6A47
:100830001E4B1B68DB6A9A4200D301201E4B1B68CB
:100840001B68002BC3D01C4B1B68DB68DB685A6835
:100850009542C1D35A699C68D968A1609C684C6074
:1008600051681E1DB142BAD0002159611168013989
:1008700011609A6A002ABCD0DC69196AA160DC693F
:100880004C60546803F118018C42ADD1AAE70E4ABE
:1008900013680133136000207047012087E700BF11
:1008A0009C00002020010020D40000202400002013
:1008B0003000002024010020280000202C0000200F
:1008C000D8000020A4000020DC00002010B500F0BB
:1008D00071F9424B1A68013A1A601B68002B78D1F3
:1008E0003F4B1B683BB9002474E0196A516015E066
:1008F000D968516021E000233A4A1268002A47D0A3
:10090000384BDB68DB689A6AD869196A8160D869F4
:100910004860506803F118018842E6D000219962CE
:100920001168013911605A699868D96881609868BE
:1009300048605168181D8142DAD000215961116860
:1009400001391160DA6A284909688A4201D92649C1
:100950000A60264902EB820201EB820252689A6029
:100960009468DC6060609060DA6A02EB8200840068
:1009700001EB80005861085901300851D96A1C4ABE
:100980001268D26A9142B7D31A4A01211160B3E7C3
:100990000BB1FFF7FFFC184B1C6874B9154B1C68B2
:1009A000C4B1164B4FF080521A60BFF34F8FBFF3A4
:1009B0006F8F01240EE0013C07D0FFF7D9FE00281D
:1009C000F9D00C4B01221A60F5E70B4B00221A609C
:1009D000E4E7002400F0FEF8204610BD9C00002053
:1009E00094000020E0000020A4000020300000203F
:1009F0002400002024010020DC00002004ED00E0A1
:100A000010B540B90A4B4FF080521A60BFF34F8FB8
:100A1000BFF36F8F10BD0446FFF7A2FE00212046F2
:100A2000FFF7EAFDFFF752FF0028F3D1EAE700BF26
:100A300004ED00E01B4B1B681BB11B4B01221A602D
:100A4000704710B4184B00221A60184B1B6800E066
:100A5000013B03EB83018A0015498A58002AF7D02D
:100A600003EB830082000A4450684068506003EB47
:100A70008304A20014460832114488420CD003EBD0
:100A8000830291000A4A0A445268D168094A1160F7
:100A9000064A136010BC70474068054A2244506003
:100AA000EDE700BF9C00002024010020A4000020EE
:100AB000300000202400002038B5044610F0070F55
:100AC00005D020F007030833834218D80024FFF72D
:100AD00047FE124B1B68A3B1CCB1114B1B681C44E1
:100AE00041F2F772944214D8A34214D20B4A15680B
:100AF0001D440B4B1C60FFF7E9FE284638BD1C4621
:100B0000E5E7084B23F00703044A1360E4E70025F8
:100B1000F1E70025EFE70025EDE700BF2801002001
:100B20002C19002033010020704782B0002301936C
:100B30004FF0BF0383F31188BFF36F8FBFF34F8F65
:100B4000019B002BFCD002B07047000006480068F3
:100B5000006880F3088862B661B6BFF34F8FBFF3B9
:100B60006F8F00DF00BF000008ED00E04FF08073E2
:100B700040F8043C21F0010140F8081C034B40F808
:100B80000C3C40F8202C4038704700BF2B0B00086D
:100B9000074B19680868B0E8F00F80F30988BFF3C5
:100BA0006F8F4FF0000080F311884EF00D0E7047EC
:100BB000240000204FF0BF0383F31188BFF36F8F31
:100BC000BFF34F8F024A136801331360704700BFB1
:100BD00004000020034A1368013B13600BB983F340
:100BE0001188704704000020000000000000000091
:100BF000EFF30980BFF36F8F0D4B1A6820E9F00FF8
:100C000010602DE908404FF0BF0080F31188FFF716
:100C100011FF4FF0000080F31188BDE8084019680B
:100C20000868B0E8F00F80F30988BFF36F8F704752
:100C30002400002008B54FF0BF0383F31188BFF3F1
:100C40006F8FBFF34F8FFFF793FD18B1034B4FF03A
:100C500080521A60002383F3118808BD04ED00E080
:100C6000054B00221A6005490A60054A45F6BF5146
:100C7000116007221A60704710E000E018E000E001
:100C800014E000E010B50B4B1A6842F47F021A60C2
:100C90001A6842F07F421A60FFF7E2FF0024064B19
:100CA0001C60FFF753FFFFF7C5FEFFF73EFF20462E
:100CB00010BD00BF20ED00E0040000200C480D49ED
:100CC0000D4A002302E0D458C4500433C4188C42A7
:100CD000F9D30A4A0A4C002301E013600432A2420D
:100CE000FBD3FFF7F3FA00F00FF8FFF779FA70473C
:100CF0000000002008000020880D000808000020E7
:100D000030190020FEE7000070B500260C4D0D4C98
:100D1000641BA410A64209D100F01AF800260A4D5F
:100D20000A4C641BA410A64205D170BD55F8043BC3
:100D300098470136EEE755F8043B98470136F2E74D
:100D4000800D0008800D0008800D0008840D00084B
:100D5000F8B500BFF8BC08BC9E467047F8B500BFA8
:080D6000F8BC08BC9E46704778
:100D68004C454431000000004C454432000000006E
:080D780049444C450000000055
:040D80003501000831
:040D84001101000851
:080D880004000000AAAAAAAAB7
:0400000508000CBD26
:00000001FF
